:020000040000FA
:1000000080314928080001347E1480318B1A0B1D81
:1000100016280B1101302100CF070030D03D0030F1
:10002000D13D0030D23D0630200095008B190B1CCD
:1000300047282700961E47289612003020008D1A68
:1000400001302100EF0052082200BB0021005108BE
:100050002200BA00210050082200B90021004F08F8
:100060002200B800210052082200B30021005108EC
:100070002200B200210050082200B10021004F08E8
:100080002200B0009D31E72580319D31BA257E10D8
:10009000090080314B282100803103208031EF009E
:1000A000E03084009D30850022001200DC00120048
:1000B000DD001200DE001200DF001200E00012007E
:1000C000E1001200E200F0308400213085000030B1
:1000D000FE000230FF009E310C2680312000EF012F
:1000E000CF308400003085002030FE000030FF005B
:1000F0009E310C26803120308400013085003C3058
:10010000FE000030FF009E310C268031A0308400BC
:10011000013085002030FE000030FF009E310C26AB
:100120007E1020008D310C2D8A31742280311F30D9
:100130002000BB003B08F000003090318D20803162
:100140007008EA007108EB00EC01ED016D08200079
:10015000A30021006C082000A20021006B082000F1
:10016000A10021006A082000A0000030A700103084
:10017000A6000030A5000030A40094310E24803188
:1001800021082200D100200020082200D0000030E9
:1001900020008D1801302100E100003020008C1B70
:1001A00001302100E0000C302000BB003B08F000D3
:1001B000003090318D2080317008EA007108EB002A
:1001C000EC01ED016D082000A30021006C08200067
:1001D000A20021006B082000A10021006A08200075
:1001E000A00092317B22803121082200CF00200024
:1001F00020082200CE004F082000AE0022004E084A
:100200002000AD00943160248031BB003B08210008
:10021000E900F001003090318D2080317008EA0053
:100220007108EB00EC01ED016D082000A300210036
:100230006C082000A20021006B082000A100210012
:100240006A082000A00092317B2280312108220020
:10025000CD00200020082200CC004D082000AE0078
:1002600022004C082000AD00943160248031BB0096
:100270003B082100E80003302000BB003B08F000F1
:10028000003090318D2080317008EA007108EB0059
:10029000EC01ED016D082000A30021006C08200096
:1002A000A20021006B082000A10021006A082000A4
:1002B000A00092317B22803121082200CB00200057
:1002C00020082200CA004B082000AE0022004A0885
:1002D0002000AD00943160248031BB003B08210038
:1002E000E70004302000BB003B08F00000309031F4
:1002F0008D2080317008EA007108EB00EC01ED01FF
:100300006D082000A30021006C082000A20021003D
:100310006B082000A10021006A082000A000923193
:100320007B22803121082200C90020002008220001
:10033000C80049082000AE00220048082000AD0097
:10034000943160248031BB003B082100E60004307A
:100350002000A0000030A100210066082000BB00A2
:10036000BC01210067082000BD00BE012100690812
:1003700068072000BF00C001C00D3D083F07C10055
:100380003E08403DC2003B084107A2003C08423DF8
:10039000A3009331192380312008C30043082100B2
:1003A000EE000B302000BB003B08F0000030903125
:1003B0008D2080317008EA007108EB00EC01ED013E
:1003C0006D082000A30021006C082000A20021007D
:1003D0006B082000A10021006A082000A0009231D3
:1003E0007B22803121082200C50020002008220045
:1003F000C4000B304502B93003194402031C042A1F
:100400002100E501E50A062A2100E50165086406E8
:100410000319162A65082000BB003B082100E400F0
:1004200091315A2180319D31EF258031F001F00A60
:10043000003090318D2080317008EA007108EB00A7
:10044000EC01ED0122005008F0005108F100F2012A
:10045000F30121006D08F7006C08F6006B08F50049
:100460006A08F4009031E920803173082000C70049
:100470007208C6007108C5007008C4000030A300EF
:100480000030A2003230A1000030A0004708F30085
:100490004608F2004508F1004408F0000030F7007B
:1004A0000030F6000030F5002530F4009031E920EE
:1004B000803173082000A7007208A6007108A5000B
:1004C0007008A40094310E24803123082200BF005C
:1004D000200022082200BE00200021082200BD00CA
:1004E000200020082200BC0009302000BB003B088F
:1004F000F000033090318D2080317108F7007008D2
:10050000F6000A30F8000030F9009F3128278031CA
:1005100077082100DC007608DB0002302000BB00F9
:100520003B08F000033090318D2080317108F700D6
:100530007008F6001430F8000030F9009F312827C9
:10054000803177082100DA007608D9002000C80140
:10055000C80A003021005C021F3003195B02031837
:10056000BA2A00305A023D30031959020318BA2A38
:100570002000C80120004808BB003B082100E30020
:10058000630862060319D02A63082000BB003B08F9
:100590002100E20091315A2180319D31EF258031D7
:1005A0001D302000BB003B08F000003090318D2052
:1005B00080317008EA007108EB00EC01ED016D0874
:1005C000F3006C08F2006B08F1006A08F0000030DC
:1005D000F7000030F6000030F5001930F4009031DB
:1005E000E920803170082000BB007108BC0072084F
:1005F000BD007308BE000830BE36BD0CBC0CBB0C81
:10060000890BFC2A3C082200C30020003B08220082
:10061000C20008002100B7002000520886008701B0
:10062000403FD400413FD500540884005508850060
:100630001200253A031D362D52088600870101302D
:10064000810741310318810A2100D301D401D70168
:10065000D801FF30D500FF30D600B201B3014D2BD9
:1006600021005714200052088600870101308107BD
:1006700041310318810A4D2B2100D714322B210060
:100680005715322B2100D715322B21005716322B4C
:1006900001302100B2000030B300210032083304E1
:1006A000031D782B2000520886008701403FD400AC
:1006B000413FD50054088400550885000008D60045
:1006C000D7015708003A0319662B482B5608203AE1
:1006D0000319422B033A0319452B083A03193F2B00
:1006E000063A0319302B1D3A03193C2B482B4D2B8E
:1006F000571C7E2BFD30D705FF30D805200052084F
:1007000086008701403FD400413FD5005408840053
:100710005508850012002A3A031DAC2B52088600AA
:1007200087010130810741310318810A530886008F
:10073000870101088400850102308107003F210004
:10074000D300013FD400D41FEF2B5714D309D40991
:10075000D30A0319D40AEF2B520886008701403FC1
:10076000FC00413FFD009731602783317D08210067
:10077000D4007C08D300C52B2000520886008701D6
:100780000130810741310318810A20005208860098
:100790008701403FD400413FD500540884005508EC
:1007A00085000008D03ED600FF3003180030D70087
:1007B000003057020A30031956020318E12B0130AA
:1007C000E22B0030D800D90158082100B4002000E5
:1007D00059082100B50034083504031DBC2B200046
:1007E000520886008701403FD400413FD50054089D
:1007F0008400550885001200643A03190E2C520833
:1008000086008701403FD400413FD5005408840052
:10081000550885001200693A031D5A2C52088600BB
:1008200087010130810741310318810A530886008E
:10083000870101088400850102308107003FD40050
:10084000013FD50054082100A000200055082100D8
:10085000A100890D893B8909A200A300A400A5007D
:10086000A600A70020082000B000210021082000D9
:10087000B100210022082000B2002100230820003E
:10088000B300210024082000B40021002508200026
:10089000B500210026082000B6002100270820000E
:1008A000B700210037088631B1263108D30030085F
:1008B000D2000800520886008701403FD400413F23
:1008C000D50054088400550885001200733A031DB2
:1008D0008A2C5208860087010130810741310318B4
:1008E000810A5308860087010108840085010230CF
:1008F0008107003F2100B000013FB1003108F9003D
:100900003008F80037088931AF217908D30078081A
:10091000D2000800520886008701403FD400413FC2
:10092000D50054088400550885001200783A031950
:10093000A82C520886008701403FD400413FD500D3
:1009400054088400550885001200583A031D022DF2
:10095000520886008701403FD400413FD50054082B
:100960008400550885000008D60056082100B6000E
:1009700020005208860087010130810741310318A9
:10098000810A53088600870101088400850102302E
:100990008107003F2100A800013FA900AA01AB0187
:1009A000AC01AD01AE01AF0128082000AC00210070
:1009B00029082000AD0021002A082000AE002100F7
:1009C0002B082000AF0021002C082000B0002100DF
:1009D0002D082000B10021002E082000B2002100C7
:1009E0002F082000B300210036082000D40054084E
:1009F000B4002100370885315B252D08D3002C0871
:100A0000D2000800520886008701403FD400413FD1
:100A1000D50054088400550885001200253A031DAE
:100A20002B2D5208860087010130810741310318C0
:100A3000810A2530F0000030F10021003708200045
:100A4000D4005408F20091319F2101302000D200DF
:100A50000030D3000800520886008701013081076A
:100A600041310318810AD201D301080052088600DF
:100A70008701403FD400413FD50054088400550809
:100A800085000008D600D7015608F0005708F1008D
:100A9000210037082000D8005808F20091319F212A
:100AA00083312000520886008701013081074131DF
:100AB0000318810A252D2000C1002100D61B642DBA
:100AC000FD30D705FF30D8055608803A2000B50024
:100AD00080303502031D6F2D0130210055020318AF
:100AE000772D01302000C2000030C3007F2D21008F
:100AF00056082000C300210055082000C200210034
:100B000054082000C500210053082000C400210023
:100B1000571E8F2DFE302000C407FF30C53D20003A
:100B20002C08C6002D08C7002E08C8002F08C900D1
:100B30003008CA003108CB003208CC003308CD00A1
:100B40001F30CE000030CF002300BF01502EFF30F9
:100B50002000CE07FF30CF3D0F304605D0000030DB
:100B60004705D1005108803AB50080303502031D99
:100B7000BB2D0A305002031CC12D20005008573EE7
:100B8000C42D20005008303ED0000030513DD1002F
:100B90003408BF3EB500FF3003180030B600003007
:100BA00036021A30031935020318D82D0130D92D19
:100BB0000030B700B8013708BD003808BE003D0856
:100BC0003E0403190E2E20305004B50000305104AD
:100BD000B60035089F3EB700FF30363DB800003004
:100BE00038021A30031937020318F82D0130F92D95
:100BF0000030B900BA013908BF003A08C0003F0808
:100C0000400403190E2E5108F7005008F6009F31DA
:100C10009B2785317708D1007608D0005008B500B1
:100C20004E08A03E86000130870035088100FF3065
:100C3000C207FF30C33DFF30C407FF30C53D46301B
:100C4000860000308700403FB500413FB600423F7C
:100C5000B700433FB800443FB900453FBA00463FA4
:100C6000BB00473FBC0004302000BC36BB0CBA0CB4
:100C7000B90CB80CB70CB60CB50C890B342E20008F
:100C80003C08CD003B08CC003A08CB003908CA002C
:100C90003808C9003708C8003608C7003508C6003C
:100CA00020004F08803AB50080303502031D5A2ECF
:100CB00002304E02031C812E2000460847044804DF
:100CC00049044A044B044C044D04031DA72D43085A
:100CD000803AB50080303502031D702E013042028B
:100CE0000318A72D20004508803AB5008030350252
:100CF000031D7C2E01304402031C812E2100D718D5
:100D0000A72D2100571E9F2EFF302000CE07FF3059
:100D1000CF3D3408B5004E08A03E86000130870064
:100D200035088100FF30CE07FF30CF3D3030B500B1
:100D30004E08A03E86000130870035088100200063
:100D40004E08A03EB5003508A4004508A60044089A
:100D5000A50041089231C8222508AD002408AC0046
:100D600008002000BD003008C4003108C50032086A
:100D7000C6003308C7003408C8003508C900360863
:100D8000CA003708CB004430860000308700473F58
:100D9000B800B81FCD2E0130CE2E00302000B90093
:100DA000BA013908C2003A08C300420843040319D3
:100DB000F72EC409C509C609C709C809C909CA095E
:100DC000CB09C40A031DF72EC50A031DF72EC60A58
:100DD000031DF72EC70A031DF72EC80A031DF72EA1
:100DE000C90A031DF72ECA0A031DF72ECB0A2100DC
:100DF000D61BFE2EFD30D705FF30D8055608803AA9
:100E00002000B80080303802031D092F0130210076
:100E100055020318112F01302000BE000030BF0022
:100E2000192F210056082000BF002100550820007E
:100E3000BE00210054082000C100210053082000FA
:100E4000C00042084304031D282F2100571D2D2FE9
:100E5000FF302000C007FF30C13D1F302000CC0014
:100E60000030CD002300BF01C12F200044084504FD
:100E700046044704480449044A044B04031D5A2FFE
:100E80003F08803AB80080303802031D492F0130F6
:100E90003E0203185A2F20004108803AB8008030E3
:100EA0003802031D552F01304002031CCD2F2100B5
:100EB000D71CCD2FFF302000CC07FF30CD3D0A30AE
:100EC000A000A101A201A301A401A501A601A701FF
:100ED0004408A8004508A9004608AA004708AB0036
:100EE0004808AC004908AD004A08AE004B08AF0006
:100EF0008B31432386312108F4002008F3009E3112
:100F00009A2686317308303E2000B8004C08A03E77
:100F100086000130870038088100FF30BE07FF30AF
:100F2000BF3DFF30C007FF30C13D0A30A000A10126
:100F3000A201A301A401A501A601A7014408A800DC
:100F40004508A9004608AA004708AB004808AC00BD
:100F50004908AD004A08AE004B08AF008D31FA25B4
:100F600086312008C4002108C5002208C6002308D5
:100F7000C7002408C8002508C9002608CA00270899
:100F8000CB0020004D08803AB80080303802031DA5
:100F9000CB2F01304C020318352F200042084304A8
:100FA000031DD52F2100571DED2FFF302000CC074A
:100FB000FF30CD3D42084304031DE02F2B30E12FCD
:100FC0002D30BB000030BC003B08B8004C08A03EF0
:100FD0008600013087003808810020004C08A03EC0
:100FE000B8003808A4004108A6004008A5003D0844
:100FF0009231C8222508B1002408B000080003344B
:101000000534003400340034003417340034003424
:10101000013401341F340A341F340E341F340E34AB
:101020001934043413340A3415341E3400340134B2
:1010300000340E3411340034003411340E340E34C4
:101040000E340E3404340E340434103408340034B6
:1010500004340434043400341034003418340434B8
:1010600003341F3411341F3401341F3400341D3451
:1010700015341734153415341F34073404341F3431
:10108000173415341D341F3415341D340334013422
:101090001F341F3415341F34173415341F340034F3
:1010A0000A34003410340A34003404340A3411345D
:1010B0000A340A340A3411340A340434013415343D
:1010C00002340E341D340E341E3409341E341F34E1
:1010D00015340A340E34113411341F3411340E34E3
:1010E0001F34153411341F34053401340E341134D7
:1010F0001D341F3404341F3411341F3411340834A8
:1011000011340F341F3404341B341F3410341034A2
:101110001F3402341F341F3401341F340E34113491
:101120000E341F34053402340E3411341E341F348F
:1011300005341A34163415340D3401341F34013497
:101140000F3410340F340734183407341F34083484
:101150001F341B3404341B3407341C340734193453
:101160001534133400341F34113403340434183468
:1011700011341F340034023401340234103410347A
:101180001034003401340034093415341E341F3453
:10119000143408340C3412341234083414341F3428
:1011A0000E34153416341E3405340034023415342C
:1011B0000F341F340434183400341D340034003428
:1011C00010340D341F3404341A341F340034003406
:1011D0001E3404341E341E3404341C340C341234D3
:1011E0000C341F3405340234023405341F341E34E9
:1011F0000434023412341534093400340F341234F8
:101200001C3410341C340C3410340C341C3418349A
:101210001C341434083414340634183406341234AC
:101220001A3416340E341134003400341F340034B0
:10123000003411340E3404340434043400340E34D5
:1012400000348B1321005208F7005108F6005008B3
:10125000F5004F08F4008B177708F3007608F200CA
:101260007508F1007408F000080064302000A00048
:101270000030A10021006E082000EC00ED016C0898
:10128000F6006D08F7004530F8000030F9009F3196
:101290002827893177082000A3007608A20093311F
:1012A0001923893120082100EA00200021082100AB
:1012B000EB00890D893B8909EC00ED005E30B80038
:1012C000A030B9006E082000EC00ED016C08210090
:1012D000BA0020006D082100BB00543090313A2044
:1012E00089315430B4000130B5004C30EC006C084A
:1012F000B6001B30ED006D08B700FF30B800873036
:10130000B900BA01BA0A9131182189311B30EC00B9
:101310006C08F9004730ED006D08FA001F30EE0050
:101320006E08FB00FC01FC0AFD01003096315126DD
:1013300089311C30EC006C08F90021006A0820009B
:10134000ED006D08FA001F30EE006E08FB00FC0196
:10135000FC0AFD01FD0A01309631512608002000EB
:10136000AB005C3086000130870020308400003004
:1013700085000730FA0016001A00FA0BBB2979081D
:10138000AD007808AC002C082D04031DCB292030BB
:10139000AC000030AD002D08F1002C08F0009E31AB
:1013A000B12689317108B1007008B00021005608DB
:1013B0002000AF00210055082000AE00AF1BF1292E
:1013C0002F08803AFA003108803A7A02031DEA2990
:1013D00030082E020318F12920002F08B1002E0832
:1013E000B00020003108AF003008AE0021005408E2
:1013F0002000AA00210053082000A9002100571C4A
:10140000132A202A2030F0000030F10020002B08A1
:10141000FA007A08F20091319F21893101302000D1
:10142000B0070030B13D20003108803AFA002A08A8
:10143000803A7A02031D1E2A29083002031C022A60
:101440002000A701A8012808803AFA002F08803A56
:101450007A02031D2D2A2E08270203184C2A200089
:101460002C0884002D0885000008FA00FB017A088A
:10147000F0007B08F1002B08FC007C08F2009131A1
:101480009F21893101302000AC070030AD3D013093
:10149000A7070030A83D232A21005718612A6E2A89
:1014A0002030F0000030F10020002B08FA007A080C
:1014B000F20091319F21893101302000B0070030C6
:1014C000B13D20003108803AFA002A08803A7A02B9
:1014D000031D6C2A29083002031C502A2000310801
:1014E000F9003008F8000800893121218A31730899
:1014F0002000BA007208B9007108B8007008B7007F
:101500000030A3000030A2000030A1007D30A00018
:101510003708AD003808AE003908AF003A08B0000F
:101520000230AD35AE0DAF0DB00D890B912A3008EC
:10153000A7002F08A6002E08A5002D08A4009431AE
:101540000E248A3123082100ED002000220821000A
:10155000EC00200021082100EB00200020082100E1
:10156000EA0000302000A3000030A2000E30A100ED
:101570001030A00021006D082000A70021006C0899
:101580002000A60021006B082000A50021006A08A9
:101590002000A40094310E248A312008AD002D08CB
:1015A0002100DD005D082000AD00AE012D08F60031
:1015B0002E08F7001030F8000E30F9009F31282770
:1015C0008A3176082000AF007708B0000030B01BE9
:1015D000FF30B100B20021006A082000B3002100F2
:1015E0006B082000B40021006C082000B500210029
:1015F0006D082000B6002F08B3023008B43B310854
:10160000B53B3208B63B36082100ED002000350816
:101610002100EC00200034082100EB0020003308FA
:101620002100EA0000302000A3000030A2000030BA
:10163000A1003C30A00021006D082000A70021007F
:101640006C082000A60021006B082000A5002100E6
:101650006A082000A40094310E248A312008AD00CD
:101660002D082100DE00C4302000AD002D08F00060
:1016700021005E089E3135266A072000AE002E0844
:101680002100DF000800F2012830860000308700CA
:10169000473FF000F01F6D2B2000A809A909AA09F7
:1016A000AB09AC09AD09AE09AF09A80A031D6B2B44
:1016B000A90A031D6B2BAA0A031D6B2BAB0A031D82
:1016C0006B2BAC0A031D6B2BAD0A031D6B2BAE0AF3
:1016D000031D6B2BAF0AF201F20A203086000030A6
:1016E0008700473FF000F01F942B2000A009A109BC
:1016F000A209A309A409A509A609A709A00A031D0F
:10170000942BA10A031D942BA20A031D942BA30A58
:10171000031D942BA40A031D942BA50A031D942BCF
:10172000A60A031D942BA70A2000200821042204E6
:10173000230424042504260427040319EC2BF101B7
:10174000F10AA71BB02BA035A10DA20DA30DA40D6E
:10175000A50DA60DA70D0130F0007008F107A12B13
:1017600027082F02031DCE2B26082E02031DCE2B89
:1017700025082D02031DCE2B24082C02031DCE2B81
:1017800023082B02031DCE2B22082A02031DCE2B79
:1017900021082902031DCE2B20082802031CE02B60
:1017A0002008A8022108A93B2208AA3B2308AB3B3A
:1017B0002408AC3B2508AD3B2608AE3B2708AF3BD1
:1017C000A736A60CA50CA40CA30CA20CA10CA00C73
:1017D0000130F102031DB02B720803190D2CA8096A
:1017E000A909AA09AB09AC09AD09AE09AF09A80A54
:1017F000031D0D2CA90A031D0D2CAA0A031D0D2C77
:10180000AB0A031D0D2CAC0A031D0D2CAD0A031DE4
:101810000D2CAE0A031D0D2CAF0A20002808A000D5
:101820002908A1002A08A2002B08A3002C08A40064
:101830002D08A5002E08A6002F08A7000800643078
:101840002000A0000030A100210042082000EC0090
:10185000ED01EC0EED0EF030ED056C080F39ED04E6
:10186000F030EC056C08A2006D08A3009331192339
:101870008C3121082100C600200020082100C5006D
:101880004608F1004508F0000030F200F300103087
:10189000F4000030F5009F310E278C317108C6002E
:1018A0007008C5008630B800A030B9004108BB0000
:1018B0004008BA00543090313A208C315430B40092
:1018C0000130B500210044082000EC006C08B6008F
:1018D000B701FF30B8008730B900BA01BA0A9131B8
:1018E00018218C31210044080A3E2000EC006C08CD
:1018F000F9000630ED006D08FA0021004408043EAE
:101900009E31F6268C3107302000EC006C08F9007F
:10191000210044080C3E2000ED006D08FA0019304B
:10192000EE006E08FB00FC01FC0AFD0121004408EA
:10193000023E963151268C3121004508193C200089
:10194000EC006C08F900210044080B3E2000ED007B
:101950006D08FA001930EE006E08FB00FC01FC0A6D
:10196000FD01FD0A21004408033E963151268C31C9
:10197000210040084104031DBF2C5830D22C0130F7
:101980004102F430031940020318C82C3030D22C25
:1019900007304102D030031940020318D12C4330E4
:1019A000D22C23302000EC006C082100C700430833
:1019B000031DE02C2B302000EC006C082100C70038
:1019C00010302000EC006C08F90021004408093EAA
:1019D0002000ED006D08FA001630EE006E08FB00E6
:1019E000FC01FD0121004408053E963151268C3151
:1019F00021004408063E2000EC006C08A0001130D5
:101A0000ED006D08A100FF30A2008730A300210087
:101A100047089631CB2608009331BC238D319E3187
:101A200018268D31953122258D31803194208D31CC
:101A3000893121218D3173082200A3007208A20090
:101A40007108A1007008A000240820022100CB002A
:101A500022002508213B2100CC0022002608223B41
:101A60002100CD0022002708233B2100CE004E0894
:101A7000031D442D4D08031D442D4C08031D442D0A
:101A800010304B02031C562D22002308A700220809
:101A9000A6002108A5002008A4009531E9258D3174
:101AA0009431C0248D319E3146268D31220064034D
:101AB000031D882D893121218D3173082200B70043
:101AC0007208B6007108B5007008B4003808340216
:101AD0002100CB0022003908353B2100CC00220038
:101AE0003A08363B2100CD0022003B08373B21005D
:101AF000CE004E08031D852D4D08031D852DAA30EF
:101B00004B0203304C3B031C882D9D31C4258D3185
:101B100021006503031D902D9D31D4258D31962D17
:101B20006508031D962D9D31CE258D310030210095
:101B30005C021F3003195B020318152D00305A0296
:101B40003D30031959020318152D893121218D319A
:101B500073082200AF007208AE007108AD00700873
:101B6000AC0030082C022100CB00220031082D3BB4
:101B70002100CC00220032082E3B2100CD002200A3
:101B800033082F3B2100CE004E082200AB0021007D
:101B90004D082200AA0021004C082200A9002100C3
:101BA0004B082200A8002B08031DDF2D2A08031D67
:101BB000DF2D093028020730293B031CE52D9D311C
:101BC000C9258D319D31BD258D3122002B08031D86
:101BD000F22D2A08031DF22D543028020730293B2C
:101BE000031C152D21006508031D152D9E31582657
:101BF0008D31152DF2012030860000308700473FDF
:101C0000F000F01F242E2000A009A109A209A309B9
:101C1000A409A509A609A709A00A031D222EA10A45
:101C2000031D222EA20A031D222EA30A031D222E0B
:101C3000A40A031D222EA50A031D222EA60A031D97
:101C4000222EA70AF201F20A28308600003087000F
:101C5000473FF000F01F4F2E2000A809A909AA094C
:101C6000AB09AC09AD09AE09AF09A80A031D4B2E9B
:101C7000A90A031D4B2EAA0A031D4B2EAB0A031DF6
:101C80004B2EAC0A031D4B2EAD0A031D4B2EAE0A84
:101C9000031D4B2EAF0A0130F0007008F2067330BE
:101CA0008600003087000830F00000301E00F00B86
:101CB000562E200020082104220423042404250495
:101CC000260427040319BA2EF101F10AA71B752E69
:101CD000A035A10DA20DA30DA40DA50DA60DA70D58
:101CE0000130F0007008F107662EF335F40DF50DA4
:101CF000F60DF70DF80DF90DFA0D27082F02031D4B
:101D00009B2E26082E02031D9B2E25082D02031D47
:101D10009B2E24082C02031D9B2E23082B02031D3F
:101D20009B2E22082A02031D9B2E21082902031D37
:101D30009B2E20082802031CAE2E2008A802210892
:101D4000A93B2208AA3B2308AB3B2408AC3B25084F
:101D5000AD3B2608AE3B2708AF3B7314A736A60C55
:101D6000A50CA40CA30CA20CA10CA00C0130F10238
:101D7000031D752E72080319DB2EF309F409F5090A
:101D8000F609F709F809F909FA09F30A031DDB2E28
:101D9000F40A031DDB2EF50A031DDB2EF60A031DD4
:101DA000DB2EF70A031DDB2EF80A031DDB2EF90AD2
:101DB000031DDB2EFA0A73082000A0007408A1009E
:101DC0007508A2007608A3007708A4007808A5008B
:101DD0007908A6007A08A700080064302100B8003E
:101DE000A030B9007E30BA00A030BB005C08BD0056
:101DF0005B08BC00543090313A208E315430B4002E
:101E00000130B50065302100C00040082000B60058
:101E1000B701FF30B8008730B900BA01BA0A913172
:101E200018218E3164302100B800A030B900823012
:101E3000BA00A030BB005A08BD005908BC0054309D
:101E400090313A208E315430B4000130B500653005
:101E50002100C00040082000B60006302100C1006B
:101E600041082000B700FF30B8008730B900BA0140
:101E7000BA0A913118218E3164302100B800A030A7
:101E8000B9006F30BA00A030BB0022005108210019
:101E9000BD00220050082100BC00543090313A208F
:101EA0008E315430B4000130B50061302100C000E3
:101EB00040082000B6000F302100C100410820007A
:101EC000B700FF30B8008730B900BA01BA0A9131C3
:101ED00018218E3164302100B800A030B9006A307A
:101EE000BA00A030BB00220045082100BD0022003E
:101EF00044082100BC00543090313A208E315430D7
:101F0000B4000130B50061302100C000400820005D
:101F1000B60015302100C10041082000B700FF3095
:101F2000B8008730B900BA01BA0A913118218E3150
:101F300064302100B800A030B9007430BA00A0307D
:101F4000BB0022003F082100BF0022003E08210004
:101F5000BE0022003D082100BD0022003C082100F7
:101F6000BC00543090313A208E315430B4000130EE
:101F7000B50061302100C00040082000B6001B30D1
:101F80002100C10041082000B700FF30B8008730B1
:101F9000B900BA01BA0A913118218E3145302100B9
:101FA000B800A030B9005D08C000C1014008BA0007
:101FB0004108BB005E08C200C3014208BC004308E0
:101FC000BD005F08C400C5014408BE004508BF004D
:101FD000543090313A208E315430B4000130B50085
:101FE0004B302100C00040082000B600B701FF3090
:101FF000B8008730B900BA01BA0A91311821080037
:10200000063023009100920115178B131514000060
:1020100000008B1723001308140814082200D300B3
:10202000230013082200D2000800A300A101A2018E
:1020300021082307F900790886000130870001088C
:10204000FA007A08A0002008031908002008F90007
:10205000FA017908F0007A08F1007808FB007B08A3
:10206000F20091319F21903101302000A107003012
:10207000A23D18282000E600BA30E2006208E50020
:102080006608E2006208E700E801E901EA01EB0105
:10209000210039082000DB00210038082000DA0088
:1020A0006530E2006208DC0067309031602068082B
:1020B0006607E2006208860001308700810108009F
:1020C000DF005B08E1005A08E0002200C001C10106
:1020D000200060088400610885001200031984282C
:1020E0006030DD005D08D2005C08DE005E08D300D1
:1020F0005F0883310A23903152082200C007200074
:1021000053082200C13D6828220041082000DB005E
:10211000220040082000DA000800F30021009D01A1
:102120009E019E171E088F3920389E001E087306D8
:10213000FC3973069E007008F200F20DF20D1D08C6
:102140007206833972069D001D140630F20030308D
:10215000890BA828F20BA828003221009D149D1895
:10216000AF281C08F5001B08F4007508F10074087E
:10217000F00008009F317C279031F7017708B038D4
:102180009F31BC27903100309F31BC2790311030F7
:102190009F31BC279031F501F60100309F31DE27D9
:1021A00090310130F5070030F63D7608803AF400B2
:1021B00080307402031DDE2884307502031CCD2894
:1021C0000130F4007408F70708307702031808009C
:1021D000BE280030FB000030FA000030F90000306B
:1021E000F800701CFB287408F8077508F93D76089C
:1021F000FA3D7708FB3D0130F435F50DF60DF70D8E
:10220000890BFC280130F336F20CF10CF00C890B31
:1022100003297308720471047004031DF1287B08FC
:10222000F3007A08F2007908F1007808F00008005D
:102230003608FC007C08BF003708FC007C08C000A2
:102240000130FC007C08BA0734088400350885009A
:102250001200031951293608FC007C08A000370839
:10226000FD007D08A1003908A3003808A200340849
:1022700084003508850000089631CB26913123086B
:10228000BE002208BD002108BC002008BB000130B0
:10229000B4070030B53D3D083A07FC007C08B600A5
:1022A00024293D08FC007C08C1003E08FC007C0895
:1022B000C20008008B1300302100D2000030D10092
:1022C0000030D0000030CF008B1700302200BB0060
:1022D0000030BA000030B9000030B8000030B7005C
:1022E0000030B6000030B5000030B4000030B3005C
:1022F0000030B2000030B1000030B0000030AF005C
:102300000030AE000030AD000030AC000030AB005B
:102310000030AA000030A9000030A8000030A7005B
:102320000030A6000030A5000030A4000030A3005B
:102330000030A2000030A1000030A00008007208A8
:10234000031D7208031DA8297008803102200800AF
:102350007208033E86008701160001040319CB2989
:102360007208033E86008701403FF300413FF400BE
:10237000720A86008701403FF500413FF60076086B
:10238000803AF7007408803A7702031DC929730860
:102390007502031808007008F300720886008701B0
:1023A000720A8400850100080107F40074088600A1
:1023B0000130870073088100720A860087010130AE
:1023C000810741310318810A0800FC017C08B038FC
:1023D0009F31BC27913120006F08031DF129043083
:1023E000F22900309F31BC27913110309F31BC273A
:1023F0009131FA01FB017C08F400F5010730F43556
:10240000F50D890BFF29F030F6002130F700740834
:102410007607F8007508773DF9007A087807860096
:102420007B08793D870001089F31DE27913101301B
:10243000FA070030FB3D7B08803AF40080307402DC
:10244000031D242A80307A02031CFB290130F4008A
:102450007408FC0708307C0203180800E6292100F4
:102460000E108E100E118E110E1222000E108E10F4
:10247000F501F60100000130F5070030F63D760861
:10248000803AF4008F307402031D482AA030750290
:10249000031C3A2A22008E14E2309F31BC2792316D
:1024A000AE309F31BC27923140309F31BC279231F2
:1024B000A1309F31BC279231C0309F31BC2792316F
:1024C0002000EF0123309F31BC2792312F309F3104
:1024D000BC27923181309F31BC2792311F309F3110
:1024E000BC27923140309F31BC279231AF309F31B1
:1024F000BC270E14080022005008F0005108F1001B
:10250000F201F30120002308F7002208F600210859
:10251000F5002008F4009031E92092317008200085
:10252000A4007108A5007208A6007308A70009306E
:10253000A736A60CA50CA40C890B982A2708210005
:10254000ED00200026082100EC00200025082100D5
:10255000EB00200024082100EA006B08FD006A0857
:10256000FC007D08F1007C08F0000030F200F30070
:102570000F30F4002730F5009F310E277108FD0061
:102580007008FC007D082000A1007C08A000080065
:10259000AB002100571CD52A20002B08FC007C082A
:1025A000F80024089031152092312000A61BDD2A66
:1025B0002608AA002508A900DF2AA901AA01A70167
:1025C000A8012808803AFC002A08803A7C02031DF2
:1025D000EB2A290827020318FF2A2030F0000030D8
:1025E000F10020002B08FC007C08F20091319F21B3
:1025F000923101302000A7070030A83DE12A2100D8
:1026000057180B2B20002B08FC007C08F80024082E
:1026100090311520923120002408F0000130F100A3
:102620009E31B12629087007A4002A08713DA50033
:102630000800A501A11F232BA009A109A00A0319C5
:10264000A10AA501A50AA31F2E2BA209A309A20A6C
:102650000319A30A0130FC007C08A506A601A70106
:102660002008210403195D2BA401A40AA11B422BFD
:102670000130A035A10D890B392B0130FC007C08FD
:10268000A407362B0130A635A70D890B432B210853
:102690002302031D4D2B20082202031C542B20086B
:1026A000A2022108A33B26140130A136A00C890BFD
:1026B000552B0130A402031D422B25080319652B5D
:1026C000A609A709A60A0319A70A2708A100260830
:1026D000A0000800F80081307802031808002130BB
:1026E0007002031808007008F2000330F236890BFC
:1026F000762B7208F300F4010730F335F40D890BE3
:102700007D2B78087307F60074080318740AF70025
:1027100071080319A32B0130F20070080739890AE8
:10272000922BF235890B912B7208F300F030F400F4
:102730002130F5007608740786007708753D87001C
:102740007308810408000130F20070080739890A13
:10275000AA2BF235890BA92B7208FF3AF300F0304F
:10276000F4002130F5007608740786007708753D7F
:1027700087007308810508009D31F82593311908F9
:102780008739703899001908FC3902389900951773
:102790000D140C148C158C160D168C148D150C152F
:1027A00023000D140C148C158C160D168C148D151D
:1027B0000C1521008D1623008D1221008D1423008D
:1027C0008D1021008C178E120E138E130C12230005
:1027D0000C1221000C1323000D1121000D118D137B
:1027E0000D130B178B15270095169E31022693317A
:1027F00097171708FC3901389700971617169D315F
:10280000CE2593319D31BD2593319D31DA2593310C
:102810009D31EF2593319031002008000030AB004E
:102820000030AA000030A9000030A80023082204CC
:10283000210420040319572CAC01AC0AA31B2C2C37
:102840000130A035A10DA20DA30D890B212C013063
:10285000FC007C08AC071E2C0130A835A90DAA0D80
:10286000AB0D890B2D2C23082702031D412C2208B8
:102870002602031D412C21082502031D412C20089E
:102880002402031C4C2C2008A4022108A53B22088A
:10289000A63B2308A73B28140130A336A20CA10CA9
:1028A000A00C890B4D2C0130AC02031D2C2C2B08E5
:1028B000A3002A08A2002908A1002808A0000800F7
:1028C0000B302E02223003192D0203186B2C2230FC
:1028D000AD000B30AE002D08DE3E2100EA00F430E2
:1028E00020002E3D2100EB00EC01ED010030200026
:1028F000A3000030A2000530A1007830A000210024
:102900006D08F3006C08F2006B08F1006A08F00033
:102910000030F7000030F6000030F5006430F400BD
:102920009031E920943173082000A7007208A600B6
:102930007108A5007008A40094310E249431230876
:102940002100ED00200022082100EC0020002108D9
:102950002100EB00200020082100EA006A08200086
:10296000AF002F08FD00F0016430AF002F08F10028
:102970007D089E312626B0003008FD007D08080045
:1029800021006503031908000B3022004F0222309A
:1029900003194E02031808000B304D0222300319B0
:1029A0004C02031808000B304B02223003194A0274
:1029B000031808000B30490222300319480203189B
:1029C00008009F317C2794311A302000B400A030D9
:1029D000B5002930C3004308B6000830C4004408DD
:1029E000B700FF30B8008730B900BA01BA0A913198
:1029F000182194313830B400A030B5002B30C3001A
:102A00004308B6000E30C4004408B700FF30B800D9
:102A10008730B900BA01BA0A913118219431913145
:102A2000E521943115302000C4004B30C300BE3086
:102A3000890B182DC30B182DC40B182D00009E31C7
:102A4000582608009F317C2795312B302000B40098
:102A5000A030B5002930EC006C08B6000830ED005D
:102A60006D08B700FF30B8008730B900BA01BA0A64
:102A70009131182195315230B400A030B5002B307F
:102A8000EC006C08B6000E30ED006D08B700FF30AA
:102A9000B8008730B900BA01BA0A913118219531CE
:102AA00079302100B800A030B9002200530821007D
:102AB000BB00220052082100BA00543090313A2065
:102AC00095315430B4000130B500B6011B30EC0034
:102AD0006C08B700FF30B8008730B900BA01BA0AF5
:102AE0009131182195319131E52195311530200032
:102AF000ED004B30EC00BE30890B7C2DEC0B7C2DB7
:102B0000ED0B7C2D0000080021006303031D992DAF
:102B10004C302000EC006C08A0000730ED006D0880
:102B2000A1000030A200A030A30020309631CB26B7
:102B3000953121006503031DAE2D56302000EC00B9
:102B40006C08A0000730ED006D08A1000030A20065
:102B5000A030A30021309631CB269531863021005C
:102B6000B800A030B900220043082100BB002200B9
:102B700042082100BA00543090313A209531543047
:102B8000B4000130B5005630EC006C08B6001330CC
:102B9000ED006D08B700FF30B8008730B900BA010A
:102BA000BA0A91311821953122006303031D0800F0
:102BB0004C302000EC006C08A0001130ED006D08D6
:102BC000A1000030A200A030A30022309631CB2615
:102BD00008009F317C279531220049082100C1005F
:102BE000220048082100C0006608C8004808C2004A
:102BF0006008C9004908C300C4018C311F24953105
:102C000022004B082100C10022004A082100C00018
:102C10006708C8004808C2000230C9004908C3005C
:102C20001330CA004A08C4008C311F249531220099
:102C30004D082100C10022004C082100C000680896
:102C4000C8004808C2006108C9004908C30026300E
:102C5000CA004A08C4008C311F24953122004F0855
:102C60002100C10022004E082100C0006908C800F0
:102C70004808C2000230C9004908C3003930CA0000
:102C80004A08C4008C311F24953195318425953133
:102C90008931352195318E31ED2695319131E521FE
:102CA00008002000A4002408A0002008A500250892
:102CB0007A02031C7A2E7908A0002008F0007C0814
:102CC000A1002108F100250893316A2396317B0881
:102CD0002000A0002008F0007C08A1002108F100DD
:102CE000250893316A23963101302000A000200886
:102CF000A507572E7908A0002008A60026087B0209
:102D0000031CA12E2608A0002008F0007C08A100CA
:102D10002108F100240893316A2396312000260807
:102D2000A0002008F0007C08A1002108F1007A082A
:102D300093316A23963101302000A0002008A607B5
:102D40007E2E7D03031D08002408A0002008A20099
:102D50007A082202031808007908A0002008A300BE
:102D60007B0823020318C62E2308A0002008F000C9
:102D70007C08A1002108F100220893316A239631D2
:102D800001302000A0002008A307B02E0130A000D1
:102D90002008A207A82E2000AB00220884002308E8
:102DA00085000008A4002408AD002308A50022081F
:102DB000A40001302407840025080318250A850093
:102DC0000008A6002608AC002B08E03EF600FF3005
:102DD00003180030F7002D08A400A5012408F8000E
:102DE0002508F9009F31282796317608023E2000F9
:102DF000A9000030773DAA002008A4002408B000F4
:102E00002108A4002408B1002008A4002408B2006E
:102E10002108A4002408B300AE012D082E020318D7
:102E20004C2FAF012C082F020318472F2E08A400A7
:102E3000A50124082207A6002508233DA70026088F
:102E40002907840027082A3D85000008A8002F0ACA
:102E50002A2FA836890B292F281C362F21082F0747
:102E6000A4002408F000F101F10A3C2F21082F07EB
:102E7000A4002408F000F10120082E0793316A23F2
:102E8000963101302000A4002408AF07122F013032
:102E9000A4002408AE070D2F30082D07FF3EA40024
:102EA0002408B20031082C07A4002408B30033081A
:102EB000A3003208A2003108A1003008A0000800D9
:102EC000AB01AC01A401A501AA01AA0A7C088400F7
:102ED0007D0885001200203A0319802F7C088400A9
:102EE0007D0885000008F73EA000FF300318003081
:102EF000A100003021020530031920020318AA01A5
:102F00002A08A000A1012008A6002108A700260881
:102F100027040319952F0130FC070030FD3D642F75
:102F20000130A4000030A500C82F7C0884007D0873
:102F300085000008A000A1012108003A0319A12F73
:102F4000CC2F20082B3A0319C82F063A0319902FCB
:102F5000CC2F7C0884007D0885000008A0002C0888
:102F6000F7002B08F6000A30F8000030F9009F3116
:102F70002827973177082000A20020087602A100B8
:102F8000031CA2032108303EAB000030223DAC0000
:102F90000130FC070030FD3D7C0884007D08850081
:102FA0000008D03EA000FF3003180030A100003020
:102FB00021020A30031920020318E02F0130E12F0B
:102FC0000030A200A3012208A8002308A9002808B5
:102FD0002904031DA92F24082504031DFB2F2B09F9
:102FE000A0002C09A100A00A0319A10A2008FC00D6
:102FF0002108FD0008002C08FD002B08FC0008003B
:103B74008E170C1608008E130C120800AE309F31FD
:103B8400BC2708002200E40120008E120800220055
:103B9400E30120000E13080020000C170D158D17EB
:103BA4000D17080020000C130D118D130D130800C0
:103BB4002200E301E30A20000E17080028346E34C3
:103BC40075346C346C3429340034E401E40AE301C0
:103BD400E30A20008E160E1708002200E401E40A0E
:103BE400E301E30A20008E160E1708000630950044
:103BF400210095129511073095048B168B17080038
:103C040020009E1323009D132F00911311172200EF
:103C1400981308006400800101310130FE02003075
:103C2400FF3B7F087E04031900340D2E92312F22AE
:103C34009E319031BA209E312D30F8007808F4007E
:103C440003309E316D260800F200720871020318D9
:103C54002D2E71080800700872020318332E7008A4
:103C6400080072080800F300F201731C3D2E70086E
:103C7400F1007108F2070310F00D0310F30C730840
:103C8400031D372E720808000B3021005C02B93086
:103C940003195B020318552E0B305A02B93003196D
:103CA4005902031C08009E31582608009D31C42582
:103CB4009E319D31CE259E319D31BD259E319D3154
:103CC400C0259E3121001D1063009E3118269E31AF
:103CD40091315A210800F5000830750203180800D4
:103CE4004030740203180800750820389F31BC273F
:103CF4009E3181309F31BC279E3174089F31BC278F
:103D040008007008D03EF200FF30713DF30000302F
:103D140073020A30031972020318922E0130932E93
:103D24000030F400F5017408F0007508F100080093
:103D34007408803AF50080307502031DA32E01300B
:103D44007302031808007309F5007409F600F50AF4
:103D54000319F60A7508F3007608F40008007108E0
:103D6400F4007008F30070088400710885001200E4
:103D74000319C12E0130F0070030F13DB52E730850
:103D84007002F0007408713BF10008007008BF3E37
:103D9400F200FF30713DF300003073021A30031952
:103DA40072020318D72E0130D82E0030F400F5012A
:103DB4007408F0007508F100080070089F3EF200D6
:103DC400FF30713DF300003073021A3003197202A0
:103DD4000318EE2E0130EF2E0030F400F5017408C4
:103DE400F0007508F1000800FC007C08FB007B086B
:103DF400FD007D087902031C08007A08FB007B089B
:103E0400F000F101F10A7D0893316A239E310130FB
:103E1400FB007B08FD07FB2E71087502031D142FA0
:103E24007008740203181B2F7508F1007408F00061
:103E3400080073087102031D212F72087002031811
:103E440008007308F1007208F0000800FA01FB0191
:103E5400761C302F7808FA077908FB3D0130F835D5
:103E6400F90D890B312F0130F736F60C890B362FFB
:103E740076087704031D2A2F7B08F7007A08F600DA
:103E84000800F401F40A2030700671040319572F56
:103E94007008F73EF200FF30713DF300003073020A
:103EA4000530031972020318F4017408F200F301D7
:103EB4007208F0007308F100080020307004F2006A
:103EC40000307104F30072089F3EF400FF30733D2C
:103ED400F500003075021A30031974020318742FA8
:103EE4000130752F0030F600F7017608F0007708EE
:103EF400F10008000130F2000030F300F030F0006F
:103F04002130F1007208700786007308713D870044
:103F140081010130F2070030F33D7308803AF0006C
:103F240082307002031D982F0030720203180800BB
:103F3400802F76089F3EF800FF30773DF90000306F
:103F440079021A30031978020318AA2F0130AB2F13
:103F54000030FA00FB017A08FC007B08FD007C08B5
:103F64007D04031908005F307605F60000307705FC
:103F7400F7000800F10022000E110E10F201F30107
:103F8400F11FC72F22000E16C92F22000E128E1504
:103F94008E110310F10D0130F2070030F33D730868
:103FA400803AF00080307002083003197202031C5A
:103FB400C22F22000E140800F10022000E150E106C
:103FC400F201F301F11FE92F22000E16EB2F22005C
:103FD4000E128E158E110310F10D0130F207003010
:103FE400F33D7308803AF000803070020830031902
:103FF4007202031CE42F22000E1408000834083453
:10400400FE34A234E234A234E234A334FE34003465
:1040140000343C343F34FC34FC34BF34BC3400340E
:1040240068348C34BE34BF34BE348C3468340034C9
:1040340042344134543454344534523459342034A1
:1040440043345234493454344934433441344C3481
:104054000034503452344F344A34453443345434A5
:104064002034343445343034333400345334593404
:104074005334543445344D34203453344C3445345F
:1040840045345034003425343034323464342534E7
:1040940030343234643425343034323464340034CB
:1040A40042345934203443344F3453344134493442
:1040B4004C34453452340034253433346434253498
:1040C40025340034253473342534343464340034D2
:1040D40049344E3420343A3400345634433443346F
:1040E4003A3400344F34553454343A340034303490
:1040F4005834253458340034493431343A34003493
:0E410400493432343A34003425346434003403
:020000040001F9
:04000E00C429FF3EC4
:00000001FF
