:020000040000FA
:1000000080314928080001347E1480318B1A0B1D81
:1000100016280B1101302100CF070030D03D0030F1
:10002000D13D0030D23D0630200095008B190B1CCD
:1000300047282700961E47289612003020008D1A68
:1000400001302100EF0052082200BB0021005108BE
:100050002200BA00210050082200B90021004F08F8
:100060002200B800210052082200B30021005108EC
:100070002200B200210050082200B10021004F08E8
:100080002200B0009D31622580319D313A257E10DD
:10009000090080314B282100803103208031EF009E
:1000A0005B3084009D30850022001200DD001200CC
:1000B000DE001200DF001200E0001200E10012007A
:1000C000E2001200E300F0308400213085000030AF
:1000D000FE000230FF009D31872580312000EF01B6
:1000E000CF308400003085002030FE000030FF005B
:1000F0009D318725803120308400013085003D30DE
:10010000FE000030FF009D3187258031A030840043
:10011000013085002030FE000030FF009D31872532
:100120007E1020008C31252C8A317B2280311F30BB
:100130002000BB003B08F90000309031C120803125
:1001400079082100EA007A08EB00EC01ED016D0866
:100150002000A30021006C082000A20021006B08F1
:100160002000A10021006A082000A0000030A700A4
:100170002030A6000030A5000030A40094318B246C
:10018000803121082200D100200020082200D00068
:10019000003020008D1801302100E10000302000E7
:1001A0008C1B01302100E0000C302000BB003B081C
:1001B000F90000309031C120803179082100EA0037
:1001C0007A08EB00EC01ED016D082000A30021008E
:1001D0006C082000A20021006B082000A100210073
:1001E0006A082000A0009231AB2280312108220051
:1001F000CF00200020082200CE004F08F5004E0856
:10020000F4009231F8228031BB003B082100E90064
:10021000F90100309031C120803179082100EA00D5
:100220007A08EB00EC01ED016D082000A30021002D
:100230006C082000A20021006B082000A100210012
:100240006A082000A0009231AB22803121082200F0
:10025000CD00200020082200CC004D08F5004C08FD
:10026000F4009231F8228031BB003B082100E80005
:1002700003302000BB003B08F90000309031C12062
:10028000803179082100EA007A08EB00EC01ED01E9
:100290006D082000A30021006C082000A2002100AE
:1002A0006B082000A10021006A082000A000923104
:1002B000AB22803121082200CB0020002008220040
:1002C000CA004B08F5004A08F4009231F822803148
:1002D000BB003B082100E70004302000BB003B08C6
:1002E000F90000309031C120803179082100EA0006
:1002F0007A08EB00EC01ED016D082000A30021005D
:100300006C082000A20021006B082000A100210041
:100310006A082000A0009231AB228031210822001F
:10032000C900200020082200C8004908F50048083C
:10033000F4009231F8228031BB003B082100E60036
:1003400004302000AC000030AD0021006608200021
:10035000BB00BC01210067082000BD00BE012100D8
:10036000690868072000BF00C001C00D3D083F07B5
:10037000C1003E08403DC2003B084107AE003C08BA
:10038000423DAF009331962380312C08C3004308CF
:100390002100EE000B302000BB003B08F9000030CC
:1003A0009031C120803179082100EA007A08EB0001
:1003B000EC01ED016D082000A30021006C08200075
:1003C000A20021006B082000A10021006A08200083
:1003D000A0009231AB22803121082200C50020000C
:1003E00020082200C4000B304502B9300319440232
:1003F000031CFE292100E501E50A002A2100E50190
:10040000650864060319102A65082000BB003B0834
:100410002100E4009131402180319D316A258031F5
:10042000F901F90A00309031C120803179082100AA
:10043000EA007A08EB00EC01ED0122005008F00020
:100440005108F100F201F30121006D08F7006C087A
:10045000F6006B08F5006A08F40090315E208031E8
:1004600073082000C7007208C6007108C500700834
:10047000C4000030A3000030A2006430A1000030AE
:10048000A0004708F3004608F2004508F1004408C0
:10049000F0000030F7000030F6000030F5002530A5
:1004A000F40090315E20803173082000A7007208AC
:1004B000A6007108A5007008A40094318B24803137
:1004C00023082200BF00200022082200BE002000D6
:1004D00021082200BD00200020082200BC000930B5
:1004E0002000BB003B08F90003309031C12080316F
:1004F0007A08A7007908A6000530A8000030A900F6
:100500009E31BD26803127082100DC00200026080E
:100510002100DB0002302000BB003B08F900033063
:100520009031C12080317A08A7007908A6000A30EE
:10053000A8000030A9009E31BD2680312708210087
:10054000DA00200026082100D9002000C801C80ACE
:1005500021005B085C04031DB32A59085A04031DDB
:10056000B32A2000C80120004808BB003B08210036
:10057000E300630862060319C92A63082000BB0070
:100580003B082100E2009131402180319D316A25F4
:1005900080311D302000BB003B08F9000030903155
:1005A000C120803179082100EA007A08EB00EC01D3
:1005B000ED016D08F3006C08F2006B08F1006A08A9
:1005C000F0000030F7000030F6000030F500193080
:1005D000F40090315E20803170082000BB0071086B
:1005E000BC007208BD007308BE000930BE36BD0CE9
:1005F000BC0CBB0C890BF62A3C082200C30020006F
:100600003B082200C20008002100B7002000520869
:1006100086008701403FD400413FD5005408840044
:10062000550885001200253A031D322D5208860018
:1006300087010130810741310318810A2100D3016C
:10064000D401D701D801FF30D500FF30D600B20168
:10065000B301472B21005714200052088600870160
:100660000130810741310318810A472B2100D7143B
:100670002C2B210057152C2B2100D7152C2B2100BA
:1006800057162C2B01302100B2000030B30021009E
:1006900032083304031D722B2000520886008701A4
:1006A000403FD400413FD5005408840055088500E0
:1006B0000008D600D7015708003A0319602B422BD7
:1006C0005608203A03193C2B033A03193F2B083AEA
:1006D0000319392B063A03192A2B1D3A0319362B15
:1006E000422B472B571C782BFD30D705FF30D80500
:1006F0002000520886008701403FD400413FD500CA
:10070000540884005508850012002A3A031DA62BC0
:100710005208860087010130810741310318810AA0
:100720005308860087010108840085010230810793
:10073000003F2100D300013FD400D41FEB2B5714FE
:10074000D309D409D30A0319D40AEB2B5208860023
:100750008701403FAC00413FAD00973161278331B5
:100760002D082100D40020002C082100D300C12B2B
:1007700020005208860087010130810741310318AB
:10078000810A2000520886008701403FD400413F83
:10079000D50054088400550885000008D03ED600D6
:1007A000FF3003180030D700003057020A30031919
:1007B00056020318DD2B0130DE2B0030D800D901A2
:1007C00058082100B400200059082100B500340861
:1007D0003504031DB82B2000520886008701403FD6
:1007E000D400413FD500540884005508850012000C
:1007F000643A03190A2C520886008701403FD4004E
:10080000413FD50054088400550885001200693A1C
:10081000031D562C520886008701013081074131A3
:100820000318810A530886008701010884008501A6
:1008300002308107003FD400013FD5005408210059
:10084000A000200055082100A100890D893B8909DD
:10085000A200A300A400A500A600A7002008200075
:10086000B000210021082000B10021002208200052
:10087000B200210023082000B3002100240820003A
:10088000B400210025082000B50021002608200022
:10089000B600210027082000B70021003708863164
:1008A000AD263108D3003008D20008005208860077
:1008B0008701403FD400413FD500540884005508CB
:1008C00085001200733A031D862C520886008701AA
:1008D0000130810741310318810A530886008701DE
:1008E00001088400850102308107003F2100B0002B
:1008F000013FB1003108F9003008F80037088931AC
:10090000B6217908D3007808D20008005208860082
:100910008701403FD400413FD5005408840055086A
:1009200085001200783A0319A42C5208860087012A
:10093000403FD400413FD50054088400550885004D
:100940001200583A031DFE2C520886008701403FD2
:10095000D400413FD50054088400550885000008A4
:10096000D60056082100B6002000520886008701F4
:100970000130810741310318810A5308860087013D
:1009800001088400850102308107003F2100A80092
:10099000013FA900AA01AB01AC01AD01AE01AF015D
:1009A00028082000AC00210029082000AD0021000B
:1009B0002A082000AE0021002B082000AF002100F3
:1009C0002C082000B00021002D082000B1002100DB
:1009D0002E082000B20021002F082000B3002100C3
:1009E00036082000D4005408B400210037088531AF
:1009F00057252D08D3002C08D20008005208860085
:100A00008701403FD400413FD50054088400550879
:100A100085001200253A031D272D52088600870104
:100A20000130810741310318810A2530F000003080
:100A3000F100210037082000D4005408F200913161
:100A4000852101302000D2000030D3000800520878
:100A5000860087010130810741310318810AD201E4
:100A6000D3010800520886008701403FD400413F6F
:100A7000D50054088400550885000008D600D70129
:100A80005608F0005708F100210037082000D80070
:100A90005808F200913185218331200052088600E8
:100AA00087010130810741310318810A212D20007F
:100AB000C1002100D61B602DFD30D705FF30D805C1
:100AC0005608803A2000B50080303502031D6B2D9A
:100AD0000130210055020318732D01302000C2009F
:100AE0000030C3007B2D210056082000C3002100E8
:100AF00055082000C200210054082000C500210034
:100B000053082000C4002100571E8B2DFE3020000A
:100B1000C407FF30C53D20002C08C6002D08C700C3
:100B20002E08C8002F08C9003008CA003108CB00C1
:100B30003208CC003308CD001F30CE000030CF008B
:100B40002300BF014C2EFF302000CE07FF30CF3DE9
:100B50000F304605D00000304705D1005108803ADB
:100B6000B50080303502031DB72D0A305002031C3A
:100B7000BD2D20005008573EC02D20005008303EAB
:100B8000D0000030513DD1003408BF3EB500FF30E9
:100B900003180030B600003036021A30031935024F
:100BA0000318D42D0130D52D0030B700B801370817
:100BB000BD003808BE003D083E0403190A2E20304F
:100BC0005004B50000305104B60035089F3EB70010
:100BD000FF30363DB800003038021A3003193702B2
:100BE0000318F42D0130F52D0030B900BA01390891
:100BF000BF003A08C0003F08400403190A2E5108FC
:100C0000F7005008F6009F31502785317708D10052
:100C10007608D0005008B5004E08A03E860001308E
:100C2000870035088100FF30C207FF30C33DFF3029
:100C3000C407FF30C53D4630860000308700403F86
:100C4000B500413FB600423FB700433FB800443FC4
:100C5000B900453FBA00463FBB00473FBC000430E7
:100C60002000BC36BB0CBA0CB90CB80CB70CB60CD7
:100C7000B50C890B302E20003C08CD003B08CC0081
:100C80003A08CB003908CA003808C9003708C8003C
:100C90003608C7003508C60020004F08803AB50066
:100CA00080303502031D562E02304E02031C7D2E6D
:100CB000200046084704480449044A044B044C04F5
:100CC0004D04031DA32D4308803AB5008030350242
:100CD000031D6C2E013042020318A32D200045088D
:100CE000803AB50080303502031D782E0130440271
:100CF000031C7D2E2100D718A32D2100571E9B2EEB
:100D0000FF302000CE07FF30CF3D3408B5004E083D
:100D1000A03E86000130870035088100FF30CE07F5
:100D2000FF30CF3D3030B5004E08A03E8600013088
:100D300087003508810020004E08A03EB500350828
:100D4000A4004508A6004408A500410893314523A6
:100D50002508AD002408AC0008002000BD003008C4
:100D6000C4003108C5003208C6003308C700340883
:100D7000C8003508C9003608CA003708CB0044301F
:100D8000860000308700473FB800B81FC92E0130E9
:100D9000CA2E00302000B900BA013908C2003A0852
:100DA000C300420843040319F32EC409C509C60948
:100DB000C709C809C909CA09CB09C40A031DF32E0A
:100DC000C50A031DF32EC60A031DF32EC70A031D11
:100DD000F32EC80A031DF32EC90A031DF32ECA0AF7
:100DE000031DF32ECB0A2100D61BFA2EFD30D705AA
:100DF000FF30D8055608803A2000B800803038020D
:100E0000031D052F01302100550203180D2F01305D
:100E10002000BE000030BF00152F21005608200022
:100E2000BF00210055082000BE002100540820000A
:100E3000C100210053082000C00042084304031DE4
:100E4000242F2100571D292FFF302000C007FF301D
:100E5000C13D1F302000CC000030CD002300BF0179
:100E6000BD2F2000440845044604470448044904B3
:100E70004A044B04031D562F3F08803AB8008030C7
:100E80003802031D452F01303E020318562F200063
:100E90004108803AB80080303802031D512F0130DC
:100EA0004002031CC92F2100D71CC92FFF3020008E
:100EB000CC07FF30CD3D0A30A000A101A201A30163
:100EC000A401A501A601A7014408A8004508A9009E
:100ED0004608AA004708AB004808AC004908AD0026
:100EE0004A08AE004B08AF008B31492386312108F8
:100EF000F4002008F3009E312F2686317308303E1F
:100F00002000B8004C08A03E860001308700380859
:100F10008100FF30BE07FF30BF3DFF30C007FF300C
:100F2000C13D0A30A000A101A201A301A401A501B5
:100F3000A601A7014408A8004508A9004608AA0080
:100F40004708AB004808AC004908AD004A08AE00AD
:100F50004B08AF008D31FA2586312008C4002108E6
:100F6000C5002208C6002308C7002408C8002508B9
:100F7000C9002608CA002708CB0020004D08803A87
:100F8000B80080303802031DC72F01304C0203180F
:100F9000312F200042084304031DD12F2100571D8B
:100FA000E92FFF302000CC07FF30CD3D420843043D
:100FB000031DDC2F2B30DD2F2D30BB000030BC009B
:100FC0003B08B8004C08A03E860001308700380876
:100FD000810020004C08A03EB8003808A400410859
:100FE000A6004008A5003D08933145232508B1001F
:100FF0002408B00008000334053400340034003401
:101000000034173400340034013401341F340A34FE
:101010001F340E341F340E341934043413340A349C
:1010200015341E340034013400340E3411340034CD
:10103000003411340E340E340E340E3404340E34B5
:1010400004341034083400340434043404340034D8
:10105000103400341834043403341F3411341F3472
:1010600001341F3400341D3415341734153415344D
:101070001F34073404341F34173415341D341F341F
:1010800015341D34033401341F341F3415341F3418
:10109000173415341F3400340A34003410340A3441
:1010A000003404340A3411340A340A340A34113452
:1010B0000A3404340134153402340E341D340E3431
:1010C0001E3409341E341F3415340A340E341134DE
:1010D00011341F3411340E341F34153411341F34BD
:1010E000053401340E3411341D341F3404341F34DC
:1010F00011341F341134083411340F341F340434C4
:101100001B341F34103410341F3402341F341F3486
:1011100001341F340E3411340E341F3405340234BC
:101120000E3411341E341F3405341A341634153479
:101130000D3401341F3401340F3410340F340734AC
:10114000183407341F3408341F341B3404341B3460
:1011500007341C34073419341534133400341F3465
:10116000113403340434183411341F34003402347D
:10117000013402341034103410340034013400349B
:10118000093415341E341F34143408340C3412342A
:101190001234083414341F340E34153416341E340B
:1011A00005340034023415340F341F340434183439
:1011B00000341D340034003410340D341F34043432
:1011C0001A341F34003400341E3404341E341E34E8
:1011D00004341C340C3412340C341F3405340234FF
:1011E000023405341F341E340434023412341534EE
:1011F000093400340F3412341C3410341C340C34D1
:1012000010340C341C3418341C34143408341434A2
:1012100006341834063412341A3416340E341134A9
:10122000003400341F340034003411340E340434DC
:101230000434043400340E3400342200E40120006D
:101240000E1308002000B7002E0884002F08850028
:101250000008B0003008B9002F08B1002E08B00017
:1012600001303007840031080318310A8500000876
:10127000B2003208B8003708E03EA600FF3003187D
:101280000030A7003908B000B1013008A8003108CB
:10129000A9009E31BD2689312608023EB5000030E6
:1012A000273DB6002C08B0003008BC002D08B00067
:1012B0003008BD002C08B0003008BE002D08B0007A
:1012C0003008BF00BA0139083A020318A229BB014D
:1012D00038083B0203189D293A08B000B1013008D4
:1012E0002E07B20031082F3DB300320835078400C5
:1012F0003308363D85000008B4003B0A8029B43627
:10130000890B7F29341C8C292D083B07B00030083D
:10131000F000F101F10A92292D083B07B0003008D6
:10132000F000F1012C083A079331E72389310130AD
:101330002000B0003008BB0768290130B000300839
:10134000BA0763293C083907FF3EB0003008BE00E9
:101350003D083807B0003008BF003F08AF003E0826
:10136000AE003D08AD003C08AC0008002000AB001A
:101370005D30860001308700203084000030850019
:101380000730FA0016001A00FA0BC2297908AD00DE
:101390007808AC002C082D04031DD2292030AC00A5
:1013A0000030AD002D08F1002C08F0009E314626DB
:1013B00089317108B1007008B00021005608200082
:1013C000AF00210055082000AE00AF1BF8292F0800
:1013D000803AFA003108803A7A02031DF129300878
:1013E0002E020318F82920002F08B1002E08B000A3
:1013F00020003108AF003008AE0021005408200062
:10140000AA00210053082000A9002100571C1A2A15
:10141000272A2030F0000030F10020002B08FA00CD
:101420007A08F20091318521893101302000B0071E
:101430000030B13D20003108803AFA002A08803A95
:101440007A02031D252A29083002031C092A2000DC
:10145000A701A8012808803AFA002F08803A7A02EA
:10146000031D342A2E0827020318532A20002C08B3
:1014700084002D0885000008FA00FB017A08F000BE
:101480007B08F1002B08FC007C08F20091318521DB
:10149000893101302000AC070030AD3D0130A70795
:1014A0000030A83D2A2A21005718682A752A2030C2
:1014B000F0000030F10020002B08FA007A08F2005A
:1014C00091318521893101302000B0070030B13DD4
:1014D00020003108803AFA002A08803A7A02031D77
:1014E000732A29083002031C572A20003108F9000A
:1014F0003008F80008009D31C4258A3173082000A7
:10150000BA007208B9007108B8007008B70000305E
:10151000A3000030A2000030A1007D30A0003708F9
:10152000AD003808AE003908AF003A08B00002300C
:10153000AD35AE0DAF0DB00D890B982A3008A70060
:101540002F08A6002E08A5002D08A40094318B2496
:101550008A3123082100ED00200022082100EC0040
:10156000200021082100EB00200020082100EA00D3
:1015700000302000A3000030A2000E30A100103087
:10158000A00021006D082000A70021006C082000A9
:10159000A60021006B082000A50021006A08200099
:1015A000A40094318B248A312008AD002D0821003D
:1015B000DD005D082000AD00AE012D08A6002E085C
:1015C000A7001030A8000E30A9009E31BD268A3138
:1015D0002608AF002708B0000030B01BFF30B10074
:1015E000B20021006A082000B30021006B0820002F
:1015F000B40021006C082000B50021006D08200017
:10160000B6002F08B3023008B43B3108B53B3208AE
:10161000B63B36082100ED00200035082100EC0023
:10162000200034082100EB00200033082100EA00EC
:1016300000302000A3000030A2000030A1003C30A8
:10164000A00021006D082000A70021006C082000E8
:10165000A60021006B082000A50021006A082000D8
:10166000A40094318B248A312008AD002D0821007C
:10167000DE00C4302000AD002D08F00021005E081F
:101680009D31A1256A072000AE002E082100DF0051
:101690000800F2012830860000308700473FF00044
:1016A000F01F732B2000A809A909AA09AB09AC09EE
:1016B000AD09AE09AF09A80A031D712BA90A031DC4
:1016C000712BAA0A031D712BAB0A031D712BAC0AE7
:1016D000031D712BAD0A031D712BAE0A031D712B67
:1016E000AF0AF201F20A2030860000308700473F3F
:1016F000F000F01F9A2B2000A009A109A209A3095C
:10170000A409A509A609A709A00A031D9A2BA10AE5
:10171000031D9A2BA20A031D9A2BA30A031D9A2BC1
:10172000A40A031D9A2BA50A031D9A2BA60A031DC2
:101730009A2BA70A20002008210422042304240451
:101740002504260427040319F22BF101F10AA71B33
:10175000B62BA035A10DA20DA30DA40DA50DA60DB0
:10176000A70D0130F0007008F107A72B27082F0202
:10177000031DD42B26082E02031DD42B25082D0271
:10178000031DD42B24082C02031DD42B23082B0269
:10179000031DD42B22082A02031DD42B2108290261
:1017A000031DD42B20082802031CE62B2008A802C6
:1017B0002108A93B2208AA3B2308AB3B2408AC3BE9
:1017C0002508AD3B2608AE3B2708AF3BA736A60C45
:1017D000A50CA40CA30CA20CA10CA00C0130F102CE
:1017E000031DB62B72080319132CA809A909AA090D
:1017F000AB09AC09AD09AE09AF09A80A031D132C4A
:10180000A90A031D132CAA0A031D132CAB0A031DDE
:10181000132CAC0A031D132CAD0A031D132CAE0AA6
:10182000031D132CAF0A20002808A0002908A100DE
:101830002A08A2002B08A3002C08A4002D08A5004C
:101840002E08A6002F08A7000800943139248C31F7
:101850009D3193258C3195313F258C3180319420F9
:101860008C319D31C4258C3173082200A30072088D
:10187000A2007108A1007008A00024082002210025
:10188000CB0022002508213B2100CC0022002608A5
:10189000223B2100CD0022002708233B2100CE005F
:1018A0004E08031D5D2C4D08031D5D2C4C08031DC7
:1018B0005D2C0B304B02031C6F2C22002308A70069
:1018C0002208A6002108A5002008A40096310626BB
:1018D0008C319431DD248C319D31B2258C31220044
:1018E0006503031DA12C9D31C4258C317308220092
:1018F000B7007208B6007108B5007008B400380867
:1019000034022100CB0022003908353B2100CC00F5
:1019100022003A08363B2100CD0022003B08373B2D
:101920002100CE004E08031D9E2C4D08031D9E2C49
:10193000AA304B0203304C3B031CA12C9D314425A3
:101940008C3121006503031DA92C9D314F258C315D
:10195000AF2C6508031DAF2C9D3149258C3121002A
:101960005B085C04031D2E2C59085A04031D2E2C01
:101970009D31C4258C3173082200AF007208AE007F
:101980007108AD007008AC0030082C022100CB00BB
:10199000220031082D3B2100CC00220032082E3BD2
:1019A0002100CD00220033082F3B2100CE004E083D
:1019B0002200AB0021004D082200AA0021004C08A3
:1019C0002200A90021004B082200A8002B08031DBB
:1019D000F22C2A08031DF22C093028020730293B7B
:1019E000031CF82C89311D218C319D313D258C3112
:1019F00022002B08031D052D2A08031D052D543038
:101A000028020730293B031C2E2C21006508031DEA
:101A10002E2C9F3130278C312E2C64302000AC00CE
:101A20000030AD00210042082000EC00ED01EC0E7A
:101A3000ED0EF030ED056C080F39ED04F030EC05DB
:101A40006C08AE006D08AF00933196238D312D08E0
:101A50002100C60020002C082100C5004608F10026
:101A60004508F0000030F200F3001030F4000030C0
:101A7000F5009E31A3268D317108C6007008C5009F
:101A80008630B800A030B9004108BB004008BA0059
:101A900055309F31DA278D315530C0000130C100FB
:101AA000210044082000EC006C08C200C301FB3098
:101AB000C4008730C500C601C60A9031FE208D31B2
:101AC000210044080A3E2000EC006C08F9000630B2
:101AD000ED006D08FA0021004408043E9E318B267B
:101AE0008D3107302000EC006C08F900210044081B
:101AF0000C3E2000ED006D08FA001930EE006E0873
:101B0000FB00FC01FC0AFD0121004408023E963165
:101B1000E7268D3121004508193C2000EC006C08B7
:101B2000F900210044080B3E2000ED006D08FA008A
:101B30001930EE006E08FB00FC01FC0AFD01FD0AF5
:101B400021004408033E9631E7268D3121004008EC
:101B50004104031DAD2D5830C02D01304102F43039
:101B6000031940020318B62D3030C02D0730410252
:101B7000D030031940020318BF2D4330C02D23304D
:101B80002000EC006C082100C7004308031DCE2D87
:101B90002B302000EC006C082100C7001030200022
:101BA000EC006C08F90021004408093E2000ED001B
:101BB0006D08FA001630EE006E08FB00FC01FD0116
:101BC00021004408053E9631E7268D312100440866
:101BD000063E2000EC006C08AC001130ED006D08F2
:101BE000AD00FB30AE008730AF00210047088931DF
:101BF00022210800F2012030860000308700473F94
:101C0000F000F01F242E2000A009A109A209A309B9
:101C1000A409A509A609A709A00A031D222EA10A45
:101C2000031D222EA20A031D222EA30A031D222E0B
:101C3000A40A031D222EA50A031D222EA60A031D97
:101C4000222EA70AF201F20A28308600003087000F
:101C5000473FF000F01F4F2E2000A809A909AA094C
:101C6000AB09AC09AD09AE09AF09A80A031D4B2E9B
:101C7000A90A031D4B2EAA0A031D4B2EAB0A031DF6
:101C80004B2EAC0A031D4B2EAD0A031D4B2EAE0A84
:101C9000031D4B2EAF0A0130F0007008F2067330BE
:101CA0008600003087000830F00000301E00F00B86
:101CB000562E200020082104220423042404250495
:101CC000260427040319BA2EF101F10AA71B752E69
:101CD000A035A10DA20DA30DA40DA50DA60DA70D58
:101CE0000130F0007008F107662EF335F40DF50DA4
:101CF000F60DF70DF80DF90DFA0D27082F02031D4B
:101D00009B2E26082E02031D9B2E25082D02031D47
:101D10009B2E24082C02031D9B2E23082B02031D3F
:101D20009B2E22082A02031D9B2E21082902031D37
:101D30009B2E20082802031CAE2E2008A802210892
:101D4000A93B2208AA3B2308AB3B2408AC3B25084F
:101D5000AD3B2608AE3B2708AF3B7314A736A60C55
:101D6000A50CA40CA30CA20CA10CA00C0130F10238
:101D7000031D752E72080319DB2EF309F409F5090A
:101D8000F609F709F809F909FA09F30A031DDB2E28
:101D9000F40A031DDB2EF50A031DDB2EF60A031DD4
:101DA000DB2EF70A031DDB2EF80A031DDB2EF90AD2
:101DB000031DDB2EFA0A73082000A0007408A1009E
:101DC0007508A2007608A3007708A4007808A5008B
:101DD0007908A6007A08A700080064302100B8003E
:101DE000A030B9007E30BA00A030BB005C08BD0056
:101DF0005B08BC0055309F31DA278E315530C0006A
:101E00000130C10065302100C00040082000C20040
:101E1000C301FB30C4008730C500C601C60A90313B
:101E2000FE208E3164302100B800A030B90082302D
:101E3000BA00A030BB005A08BD005908BC0055309C
:101E40009F31DA278E315530C0000130C100653036
:101E50002100C00040082000C20006302100C1005F
:101E600041082000C300FB30C4008730C500C60114
:101E7000C60A9031FE208E3164302100B800A030B7
:101E8000B9006F30BA00A030BB0022005108210019
:101E9000BD00220050082100BC0055309F31DA27D8
:101EA0008E315530C0000130C10061302100C000CA
:101EB00040082000C2000F302100C100410820006E
:101EC000C300FB30C4008730C500C601C60A90318C
:101ED000FE208E3164302100B800A030B9006A3095
:101EE000BA00A030BB00220045082100BD0022003E
:101EF00044082100BC0055309F31DA278E3155301F
:101F0000C0000130C10061302100C0004008200045
:101F1000C20015302100C10041082000C300FB3081
:101F2000C4008730C500C601C60A9031FE208E313C
:101F300064302100B800A030B9007430BA00A0307D
:101F4000BB0022003F082100BF0022003E08210004
:101F5000BE0022003D082100BD0022003C082100F7
:101F6000BC0055309F31DA278E315530C00001302A
:101F7000C10061302100C00040082000C2001B30B9
:101F80002100C10041082000C300FB30C40087309D
:101F9000C500C601C60A9031FE208E3145302100B1
:101FA000B800A030B9005D08C000C1014008BA0007
:101FB0004108BB005E08C200C3014208BC004308E0
:101FC000BD005F08C400C5014408BE004508BF004D
:101FD00055309F31DA278E315530C0000130C100B5
:101FE0004B302100C00040082000C200C301FB307C
:101FF000C4008730C500C601C60A9031FE20080023
:10200400DF005B08E1005A08E0002200C001C101C2
:102014002000600884006108850012000319262846
:102024006030DD005D08D2005C08DE005E08D3008D
:102034005F0883310423903152082200C007200036
:1020440053082200C13D0A28220041082000DB0079
:10205400220040082000DA0008009F311127903147
:10206400F7017708B0389F317127903100309F31E4
:102074007127903110309F3171279031F501F601AD
:1020840000309F31932790310130F5070030F63D41
:102094007608803AF40080307402031D532884309B
:1020A4007502031C42280130F4007408F707083055
:1020B40077020318080033280030FB000030FA00D0
:1020C4000030F9000030F800701C70287408F8071C
:1020D4007508F93D7608FA3D7708FB3D0130F43583
:1020E400F50DF60DF70D890B71280130F336F20C5E
:1020F400F10CF00C890B78287308720471047004D5
:10210400031D66287B08F3007A08F2007908F100C1
:102114007808F0000800F501F6017008710403194D
:10212400BC28F701F70AF11BA1280130F035F10DA5
:10213400890B98280130F4007408F70795280130BA
:10214400F535F60D890BA22871087302031DAC281E
:1021540070087202031CB3287008F2027108F33B82
:1021640075140130F136F00C890BB4280130F702F4
:10217400031DA1287608F1007508F000080020006E
:10218400A0000430FB007B08A500A301A401A10169
:10219400A2012208803AFB0080307B02031DD42870
:1021A400250821020318EB287908FB007B08F000BE
:1021B4002000200892311522903120002308700756
:1021C400A3002408713DA4000130A1070030A23D02
:1021D400CB2820002508FB00FC017B08F0007C08CC
:1021E400F1002408F3002308F20090318D207108D7
:1021F400FA007008F90008004208C7004708CD003B
:102204004308C7004708CE000130C7004708C60787
:102214004008840041088500120003193729420848
:10222400C7004708AC004308C8004808AD0045088B
:10223400AF004408AE00400884004108850000084F
:102244008931222190312F08CC002E08CB002D0893
:10225400CA002C08C9000130C0070030C13D4B083A
:102264004607C7004708C2000A294B08C7004708A9
:10227400CF004C08C7004708D00008008B1300307B
:102284002100D2000030D1000030D0000030CF0057
:102294008B1700302200BB000030BA000030B900B8
:1022A4000030B8000030B7000030B6000030B50090
:1022B4000030B4000030B3000030B2000030B10090
:1022C4000030B0000030AF000030AE000030AD0090
:1022D4000030AC000030AB000030AA000030A90090
:1022E4000030A8000030A7000030A6000030A50090
:1022F4000030A4000030A3000030A2000030A10090
:102304000030A00008007208031D7208031D8E2906
:1023140070088031022008007208033E860087019D
:10232400160001040319B1297208033E86008701CF
:10233400403FF300413FF400720A86008701403FAA
:10234400F500413FF6007608803AF7007408803AB9
:102354007702031DAF29730875020318080070087B
:10236400F300720886008701720A84008501000860
:102374000107F400740886000130870073088100A7
:10238400720A860087010130810741310318810AEE
:102394000800FC017C08B0389F317127913120007E
:1023A4006F08031DD7290430D82900309F317127C5
:1023B400913110309F3171279131FA01FB017C0872
:1023C400F400F5010730F435F50D890BE529F030FB
:1023D400F6002130F70074087607F8007508773D99
:1023E400F9007A08780786007B08793D87000108A0
:1023F4009F31932791310130FA070030FB3D7B0870
:10240400803AF40080307402031D0A2A80307A0274
:10241400031CE1290130F4007408FC0708307C0235
:1024240003180800CC29F400F701F80121009D01EC
:102434009E019E171E088F3920389E001E087406C0
:10244400FC3974069E007008F200F20DF20D1D08AE
:102454007206833972069D001D140630F200303076
:10246400890B322AF20B322A0032F501F6012100DF
:102474009D149D183B2A1B08F7071C08F83D0130E2
:10248400F5070030F63D7608803AF200803072029B
:10249400031D4E2A04307502031C392A7808F30000
:1024A4007708F200F336F20C7208F7007308F800AC
:1024B4007808F1007708F000080021000E108E1053
:1024C4000E118E110E1222000E108E10F501F6015F
:1024D40000000130F5070030F63D7608803AF4003C
:1024E4008F307402031D782AA0307502031C6A2AF7
:1024F40022008E14E2309F3171279231AE309F3129
:102504007127923140309F3171279231A1309F3130
:1025140071279231C0309F31712792312000EF0131
:1025240023309F31712792312F309F31712792319F
:1025340081309F31712792311F309F317127923141
:1025440040309F3171279231AF309F3171270E1483
:10255400080022005008F0005108F100F201F301D4
:1025640020002308F7002208F6002108F5002008BF
:10257400F40090315E20923170082000A4007108AC
:10258400A5007208A6007308A7000A30A736A60C97
:10259400A50CA40C890BC82A27082100ED002000F3
:1025A40026082100EC00200025082100EB00200073
:1025B40024082100EA006B08FD006A08FC007D087D
:1025C400F1007C08F0000030F200F3000F30F4005A
:1025D4002730F5009E31A3267108FD007008FC0029
:1025E4007D082000A1007C08A00008002000A501AF
:1025F400A201A401A001A101A601A70120002508B0
:102604009D31ED259231F60076082000A3002508BF
:10261400013E9D31ED259231F60076082000A4009C
:102624002308F600F7012408F800F9017808F900F6
:10263400F80176087807A0007708793DA100210801
:102644007502031D272B20087402031C2F2B260858
:10265400643CF6007608A200422B0230F6007608AD
:10266400A5070130A6070030A73D2708803AF600E9
:1026740080307602031D402B64302602031C002B9D
:10268400200022080800AB002100571C522B200018
:102694002B08FC007C08F80024089F31B5279331EF
:1026A4002000A61B5A2B2608AA002508A9005C2B8B
:1026B400A901AA01A701A8012808803AFC002A0858
:1026C400803A7C02031D682B2908270203187C2BFF
:1026D4002030F0000030F10020002B08FC007C08C2
:1026E400F20091318521933101302000A707003099
:1026F400A83D5E2B21005718882B20002B08FC00D6
:102704007C08F80024089F31B52793312000240861
:10271400F0000130F1009E31462629087007A4001C
:102724002A08713DA5000800B101AD1FA02BAC091A
:10273400AD09AC0A0319AD0AB101B10AAF1FAB2B45
:10274400AE09AF09AE0A0319AF0A0130FD007D08D6
:10275400B106B201B3012C082D040319DA2BB00120
:10276400B00AAD1BBF2B0130AC35AD0D890BB62BB8
:102774000130FD007D08B007B32B0130B235B30D35
:10278400890BC02B2D082F02031DCA2B2C082E02E7
:10279400031CD12B2C08AE022D08AF3B32140130A0
:1027A400AD36AC0C890BD22B0130B002031DBF2B0C
:1027B40031080319E22BB209B309B20A0319B30AA7
:1027C4003308AD003208AC000800F800813078020C
:1027D4000318080021307002031808007008F20082
:1027E4000330F236890BF32B7208F300F40107303F
:1027F400F335F40D890BFA2B78087307F600740887
:102804000318740AF70071080319202C0130F20030
:1028140070080739890A0F2CF235890B0E2C7208BF
:10282400F300F030F4002130F500760874078600D8
:102834007708753D87007308810408000130F200B1
:1028440070080739890A272CF235890B262C72085F
:10285400FF3AF300F030F4002130F50076087407F5
:1028640086007708753D87007308810508009D314F
:102874007325943119088739703899001908FC397F
:102884000238990095170D140C148C158C160D161E
:102894008C148D150C1523000D140C148C158C162A
:1028A4000D168C148D150C1521008D1623008D1218
:1028B40021008D1423008D1021008C178E120E130D
:1028C4008E130C1223000C1221000C1323000D1183
:1028D40021000D118D130D130B178B152700951661
:1028E4009D317D25943197171708FC3901389700DD
:1028F400971617169D31492594319D313D25943104
:102904009D31552594319D316A2594319D31D825C9
:1029140008000030AB000030AA000030A9000030ED
:10292400A80023082204210420040319D42CAC0198
:10293400AC0AA31BA92C0130A035A10DA20DA30D37
:10294400890B9E2C0130FC007C08AC079B2C0130C9
:10295400A835A90DAA0DAB0D890BAA2C23082702B3
:10296400031DBE2C22082602031DBE2C21082502AD
:10297400031DBE2C20082402031CC92C2008A40219
:102984002108A53B2208A63B2308A73B28140130B5
:10299400A336A20CA10CA00C890BCA2C0130AC02EA
:1029A400031DA92C2B08A3002A08A2002908A100B2
:1029B4002808A000080021006503031908000B3053
:1029C40022004F02223003194E02031808000B3074
:1029D4004D02223003194C02031808000B304B023D
:1029E400223003194A02031808000B30490222302E
:1029F40003194802031808009F31112794311A3033
:102A04002000C000A030C1002930D1005108C2000C
:102A14000830D2005208C300FB30C4008730C50020
:102A2400C601C60A9031FE2094313830C000A0306F
:102A3400C1002B30D1005108C2000E30D200520820
:102A4400C300FB30C4008730C500C601C60A9031FC
:102A5400FE2094319131CB21943115302000D200E5
:102A64004B30D100BE30890B352DD10B352DD20B17
:102A7400352D00009F31302708009F3111279531F3
:102A84002B302000C000A030C1002930EC006C08BD
:102A9400C2000830ED006D08C300FB30C40087306D
:102AA400C500C601C60A9031FE2095315230C000DF
:102AB400A030C1002B30EC006C08C2000E30ED00D9
:102AC4006D08C300FB30C4008730C500C601C60AC8
:102AD4009031FE20953179302100B800A030B90042
:102AE400220053082100BB00220052082100BA0032
:102AF40055309F31DA2795315530C0000130C1007F
:102B0400C2011B30EC006C08C300FB30C4008730EA
:102B1400C500C601C60A9031FE2095319131CB2102
:102B2400953115302000ED004B30EC00BE30890BA0
:102B3400992DEC0B992DED0B992D00000800210027
:102B44006303031DB62D4C302000EC006C08AC0070
:102B54000730ED006D08AD000030AE00A030AF00CE
:102B6400203089312221953121006503031DCB2DAD
:102B740056302000EC006C08AC000730ED006D0806
:102B8400AD000030AE00A030AF00213089312221E9
:102B9400953186302100B800A030B90022004308E6
:102BA4002100BB00220042082100BA0055309F31A9
:102BB400DA2795315530C0000130C1005630EC00A1
:102BC4006C08C2001330ED006D08C300FB30C40074
:102BD4008730C500C601C60A9031FE209531220017
:102BE4006403031D08004C302000EC006C08AC00AA
:102BF4001130ED006D08AD000030AE00A030AF0024
:102C040022308931222108009F3111279631220078
:102C140049082100C100220048082100C0006608BC
:102C2400C8004808C2006008C9004908C300C401BC
:102C34008D310D25963122004B082100C100220060
:102C44004A082100C0006708C8004808C2000230D2
:102C5400C9004908C3001330CA004A08C4008D31B2
:102C64000D25963122004D082100C10022004C0898
:102C74002100C0006808C8004808C2006108C900F3
:102C84004908C3002630CA004A08C4008D310D2506
:102C9400963122004F082100C10022004E08210075
:102CA400C0006908C8004808C2000230C9004908C9
:102CB400C3003930CA004A08C4008D310D2596314D
:102CC4009531A125963196316E2696318E31ED26B9
:102CD40096319131CB21080064302000AC000030E3
:102CE400AD0021006E082000EC00ED016C08A60088
:102CF4006D08A7004530A8000030A9009E31BD260C
:102D040096312708AF002608AE00933196239631FA
:102D14002C082100EA0020002D082100EB00890D79
:102D2400893B8909EC00ED005E30B800A030B900A1
:102D34006E082000EC00ED016C082100BA002000B0
:102D44006D082100BB0055309F31DA27963155308C
:102D5400C0000130C1004C30EC006C08C2001B30D4
:102D6400ED006D08C300FB30C4008730C500C60108
:102D7400C60A9031FE2096311B30EC006C08F90035
:102D84004730ED006D08FA001F30EE006E08FB00BE
:102D9400FC01FC0AFD0100309631E72696311C3017
:102DA400EC006C08F90021006A082000ED006D08B1
:102DB400FA001F30EE006E08FB00FC01FC0AFD0166
:102DC400FD0A01309631E72608002000A4002408FB
:102DD400A0002008A50025087A02031C102F7908FA
:102DE400A0002008F0007C08A1002108F1002508BB
:102DF4009331E72396317B082000A0002008F000DF
:102E04007C08A1002108F10025089331E7239631BD
:102E140001302000A0002008A507ED2E7908A000AD
:102E24002008A60026087B02031C372F2608A000D2
:102E34002008F0007C08A1002108F1002408933147
:102E4400E723963120002608A0002008F0007C0823
:102E5400A1002108F1007A089331E723963101306B
:102E64002000A0002008A607142F7D03031D0800DE
:102E74002408A0002008A2007A08220203180800EF
:102E84007908A0002008A3007B08230203185C2F04
:102E94002308A0002008F0007C08A1002108F1000C
:102EA40022089331E723963101302000A000200846
:102EB400A307462F0130A0002008A2073E2FB90126
:102EC400BA01B201B301B801B80A2C0884002D0874
:102ED40085001200203A0319812F2C0884002D0844
:102EE40085000008F73EAE00FF3003180030AF0045
:102EF40000302F02053003192E020318B8013808D8
:102F0400AE00AF012E08B4002F08B5003408350414
:102F14000319962F0130AC070030AD3D652F013009
:102F2400B2000030B300C82F2C0884002D0885009F
:102F34000008AE00AF012F08003A0319A22FCC2FCE
:102F44002E082B3A0319C82F063A0319912FCC2FB8
:102F54002C0884002D0885000008AE003A08A7005C
:102F64003908A6000A30A8000030A9009E31BD2609
:102F740097312708B0002E082602AF00031CB003C7
:102F84002F08303EB9000030303DBA000130AC07A4
:102F94000030AD3D2C0884002D0885000008D03E8B
:102FA400AE00FF3003180030AF0000302F020A30AB
:102FB40003192E020318E02F0130E12F0030B00076
:102FC400B1013008B6003108B70036083704031DD4
:102FD400AA2F32083304031DFB2F3909AE003A0926
:102FE400AF00AE0A0319AF0A2E08AC002F08AD00DB
:0C2FF40008003A08AD003908AC000800E5
:103A74008E170C1608008E130C120800AE309F31FE
:103A8400712708002200E50120008E1208002000A2
:103A94000C170D158D170D17080020000C130D11B0
:103AA4008D130D1308002200E401E40A20000E1710
:103AB400080028346E3475346C346C342934003482
:103AC400E501E50AE401E40A20008E160E17080059
:103AD4002200E501E50AE401E40A20008E160E172F
:103AE40008000630950021009512951107309504C1
:103AF4008B168B17080020009E1323009D132F00A4
:103B040091131117220098130800640080010131F9
:103B14000130FE020030FF3B7F087E0403190034AD
:103B2400882D92315F229D3190312F209D312D308F
:103B3400F8007808F40003309E3102260800F300F0
:103B4400F201731CA92D7008F1007108F20703102B
:103B5400F00D0310F30C7308031DA32D7208080065
:103B64000B3021005C02B93003195B020318C12D2C
:103B74000B305A02B93003195902031C08009F3153
:103B8400302708008B1321005208F7005108F60073
:103B94005008F5004F08F4008B177708F3007608F7
:103BA400F2007508F1007408F000080006302300E4
:103BB4009100920115178B131514000000008B1748
:103BC40023001308140814082200D3002300130848
:103BD4002200D2000800F300F02D2000640023002E
:103BE4009518EF2D7308F000F10170089100710829
:103BF40092003F30F200720895051514130808006E
:103C0400F5000830750203180800403074020318E8
:103C14000800750820389F3171279E3181309F310B
:103C240071279E3174089F31712708007008D03EB7
:103C3400F200FF30713DF300003073020A300319C3
:103C440072020318272E0130282E0030F400F501EB
:103C54007408F0007508F10008007408803AF50053
:103C640080307502031D382E0130730203180800DA
:103C74007309F5007409F600F50A0319F60A7508C4
:103C8400F3007608F40008007108F4007008F300EB
:103C9400700884007108850012000319562E013043
:103CA400F0070030F13D4A2E73087002F0007408EA
:103CB400713BF10008007008BF3EF200FF30713D17
:103CC400F300003073021A300319720203186C2EC9
:103CD40001306D2E0030F400F5017408F000750811
:103CE400F100080070089F3EF200FF30713DF300C0
:103CF400003073021A30031972020318832E013044
:103D0400842E0030F400F5017408F0007508F10009
:103D14000800FC007C08FB007B08FD007D0879029C
:103D2400031C08007A08FB007B08F000F101F10A8B
:103D34007D089331E7239E310130FB007B08FD07AA
:103D4400902E71087502031DA92E700874020318C1
:103D5400B02E7508F1007408F000080073087102B1
:103D6400031DB62E72087002031808007308F100D0
:103D74007208F0000800AA01AB01261CC52E280811
:103D8400AA072908AB3D0130A835A90D890BC62E19
:103D94000130A736A60C890BCB2E26082704031D59
:103DA400BF2E2B08A7002A08A6000800F401F40A75
:103DB4002030700671040319EC2E7008F73EF200EF
:103DC400FF30713DF30000307302053003197202B5
:103DD4000318F4017408F200F3017208F000730888
:103DE400F100080020307004F20000307104F30088
:103DF40072089F3EF400FF30733DF50000307502F9
:103E04001A30031974020318092F01300A2F0030E5
:103E1400F600F7017608F0007708F1000800013099
:103E2400F2000030F300F030F0002130F1007208AD
:103E3400700786007308713D870081010130F20725
:103E44000030F33D7308803AF00082307002031DA5
:103E54002D2F0030720203180800152F9D314425C0
:103E64009F319D3149259F319D313D259F319D31A4
:103E740040259F3121001D10630092315F229F3144
:103E84009F3111279F312D30F7007708F40003305C
:103E94009E3102269F3191314021080076089F3ED1
:103EA400F800FF30773DF900003079021A30031929
:103EB400780203185F2F0130602F0030FA00FB01F5
:103EC4007A08FC007B08FD007C087D0403190800C7
:103ED4005F307605F60000307705F7000800F10042
:103EE40022000E110E10F201F301F11F7C2F2200AB
:103EF4000E167E2F22000E128E158E110310F10D58
:103F04000130F2070030F33D7308803AF00080304E
:103F14007002083003197202031C772F22000E145A
:103F24000800F10022000E150E10F201F301F11F3A
:103F34009E2F22000E16A02F22000E128E158E1117
:103F44000310F10D0130F2070030F33D7308803A9D
:103F5400F00080307002083003197202031C992F9C
:103F640022000E140800A300A101A20121082307C6
:103F7400F90079088600013087000108FA007A0800
:103F8400A0002008031908002008F900FA017908A4
:103F9400F0007A08F1007808FB007B08F200913108
:103FA40085219F3101302000A1070030A23DB82FA8
:103FB4002000E600BA30E2006208E5006608E2008C
:103FC4006208E700E801E901EA01EB012100390890
:103FD4002000DB00210038082000DA006530E20010
:103FE4006208DC0067309031022068086607E2004E
:103FF4006208860001308700810108000834083413
:10400400FE34A234E234A234E234A334FE34003465
:1040140000343C343F34FC34FC34BF34BC3400340E
:1040240068348C34BE34BF34BE348C3468340034C9
:1040340042344134543454344534523459342034A1
:1040440043345234493454344934433441344C3481
:104054000034503452344F344A34453443345434A5
:104064002034343445343034333400345334593404
:104074005334543445344D34203453344C3445345F
:1040840045345034003425343034323464342534E7
:1040940030343234643425343034323464340034CB
:1040A40042345934203443344F3453344134493442
:1040B4004C34453452340034253433346434253498
:1040C40025340034253473342534343464340034D2
:1040D40049344E3420343A3400345634433443346F
:1040E4003A3400344F34553454343A340034303490
:1040F4005834253458340034493431343A34003493
:0E410400493432343A34003425346434003403
:020000040001F9
:04000E00C429FF3EC4
:10E0000049001000C4000F00B2000F00A7000F006D
:10E010009B000F008F000F0084000F0078000F009E
:10E020006D000F0061000F0057000F004C000F0043
:10E0300040000F0035000F002A000F001F000F00E6
:10E0400016000F000B000F0000000F00F5000E007F
:10E05000EB000E00E0000E00D5000E00CB000E001D
:10E06000BF000E00B4000E00A8000E009D000E00C0
:10E0700092000E0088000E007D000E0073000E005E
:10E0800068000E005D000E0054000E0049000E00F6
:10E090003F000E0035000E002D000E0023000E0084
:10E0A0001C000E0011000E000A000E0001000E0000
:10E0B000FA000D00F2000D00E9000D00E3000D0074
:10E0C000DB000D00D4000D00CD000D00C7000D00D9
:10E0D000C1000D00B9000D00B4000D00AC000D0032
:10E0E000A8000D00A0000D009A000D0095000D0085
:10E0F0008F000D008A000D0087000D007E000D00CE
:10E100007A000D0074000D0070000D006B000D0012
:10E1100066000D0060000D005C000D0056000D0053
:10E1200051000D004B000D0046000D0040000D0099
:10E130003A000D0032000D002D000D0024000D00EE
:10E140001F000D0016000D000E000D0005000D0053
:10E15000FD000C00F4000C00EC000C00E1000C00D1
:10E16000D8000C00CD000C00C3000C00B5000C0062
:10E17000A6000C0092000C007A000C005A000C0063
:10E1800031000C00F5000B009B000B00EC000A00B6
:00000001FF
